:100000000C9439000C9402040C9448040C9456008F
:100010000C9456000C9456000C9456000C94560008
:100020000C9456000C9456000C9456000C94100539
:100030000C9456000C9456000C9456000C945600E8
:100040000C94B9020C9456000C9456000C94560073
:100050000C945600A304A704AC04B104B604BB047A
:10006000C004C504E704EC04F104F604FB04000535
:10007000050511241FBECFE5D8E0DEBFCDBF10E0DF
:10008000A0E6B0E0EEECFAE002C005900D92A037D9
:10009000B107D9F720E0A0E7B0E001C01D92AE376C
:1000A000B207E1F70E948D000C9465050C940000E6
:1000B00080917400909175000196909375008093E3
:1000C0007400089581E08093730080917000909196
:1000D0007100019690937100809370000895809153
:1000E00073008130C9F40E94FF008B3259F40E94E2
:1000F000B502809172008F5F8093720090E00E9441
:100100006F0208958F3221F485E00E94DD04089586
:100110008A3211F40E94D904089541E064E080E03D
:100120000E94E00240E060E080E00E94E00240E0E7
:1001300061E080E00E94E00241E066E082E00E942F
:10014000E00241E063E081E00E94E0020E94E701FA
:100150000E94C20065E082E00E94730480E90E9470
:10016000D7040E946F040E94290482E690E00E9456
:10017000410488E590E00E9409050E943D040E9428
:100180006F00FDCF40E067E083E00E94E00240E0C6
:1001900066E083E00E94E00240E065E083E00E94C8
:1001A000E00240E063E083E00E94E00241E065E0BD
:1001B00082E00E94E00241E064E082E00E94E0020E
:1001C00041E063E082E00E94E00241E062E082E020
:1001D0000E94E00241E067E083E00E94560341E0B4
:1001E00066E083E00E94560341E065E083E00E9400
:1001F000560341E063E083E00E9456030895CF92E6
:10020000DF92EF92FF920F931F93CF93DF93CDB7BF
:10021000DEB768970FB6F894DEBF0FBECDBF95E08E
:10022000998384E08A8383E08B8322E02C8327E018
:100230002D8326E02E839F83888780E1E0E6F0E02F
:10024000DE01199601900D928A95E1F7E12CF12CCF
:10025000CC24CA943FC0E1E0F0E0EC0FFD1FEE0DAE
:10026000FF1DD08040E06D2D82E00E94560300E02B
:1002700010E025C0E5E0F0E0EC0FFD1FE00FF11FFE
:10028000608183E00E94CC03811117C02FEF89EFBA
:1002900090E0215080409040E1F700C00000F7015D
:1002A000EE0FFF1FEE0FFF1F81E090E08C0F9D1FF0
:1002B000E80FF91FE00FF11FC0840F5F1F4F0430DC
:1002C0001105C4F241E06D2D82E00E9456039FEFBC
:1002D000E91AF90A24E0E216F1040CF4BCCF8C2DE3
:1002E00068960FB6F894DEBF0FBECDBFDF91CF91F9
:1002F0001F910F91FF90EF90DF90CF90089541E014
:1003000062E080E00E9456032FEF86E791E02150E3
:1003100080409040E1F700C0000040E062E080E0F3
:100320000E9456038FE99FE00197F1F700C000009B
:100330000895482F63E080E00E9456030895CF930C
:10034000C82F80E00E94990140E062E080E00E94B6
:1003500056034C2F441F4427441F64E081E00E9451
:100360005603C6FB442740F962E081E00E94560331
:10037000C5FB442740F961E081E00E945603C4FBBD
:10038000442740F960E081E00E9456030E947F010B
:10039000C3FB442740F964E081E00E945603C2FB9E
:1003A000442740F962E081E00E945603C1FB4427E4
:1003B00040F961E081E00E9456034C2F417060E0FB
:1003C00081E00E9456030E947F01CF91089541E091
:1003D00064E081E00E94E00241E062E081E00E948E
:1003E000E00241E061E081E00E94E00241E060E083
:1003F00081E00E94E00241E062E080E00E94E002D1
:1004000041E063E080E00E94E0022FE783E891E0B2
:10041000215080409040E1F700C0000083E30E943B
:100420009F018FE39CE90197F1F700C0000082E390
:100430000E949F018FE39CE90197F1F700C0000043
:1004400088E20E949F018CE00E949F010895CF9353
:10045000C82F81E00E94990140E062E080E00E94A4
:1004600056034C2F441F4427441F64E081E00E9440
:100470005603C6FB442740F962E081E00E94560320
:10048000C5FB442740F961E081E00E945603C4FBAC
:10049000442740F960E081E00E9456030E947F01FA
:1004A000C3FB442740F964E081E00E945603C2FB8D
:1004B000442740F962E081E00E945603C1FB4427D3
:1004C00040F961E081E00E9456034C2F417060E0EA
:1004D00081E00E9456030E947F01CF9108950F93FF
:1004E0001F93CF93DF93CDB7DEB72A970FB6F8945B
:1004F000DEBF0FBECDBF1A821982FE01339628E0FF
:10050000DF011D922A95E9F700E010E010C06AE0D3
:1005100070E00E943705E1E0F0E0EC0FFD1FE00F16
:10052000F11F805D8083862F972F0F5F1F4F181656
:1005300019066CF3015011090BC0E1E0F0E0EC0F7B
:10054000FD1FE00FF11F80810E9427020150110959
:1005500011239CF72A960FB6F894DEBF0FBECDBFCD
:10056000DF91CF911F910F91089581E00E949F012B
:1005700008951F920F920FB60F9211242F933F935D
:100580004F935F936F937F938F939F93AF93BF939B
:10059000EF93FF93E0917600F09177000995FF913A
:1005A000EF91BF91AF919F918F917F916F915F91EB
:1005B0004F913F912F910F900FBE0F901F90189564
:1005C000843008F072C0683008F06FC04130A1F587
:1005D000813089F028F08230C9F0833011F108951C
:1005E0002AB381E090E002C0880F991F6A95E2F774
:1005F000822B8ABB089527B381E090E002C0880F68
:10060000991F6A95E2F7822B87BB089524B381E096
:1006100090E002C0880F991F6A95E2F7822B84BB95
:10062000089521B381E090E002C0880F991F6A9578
:10063000E2F7822B81BB0895411137C0813091F0E0
:1006400028F08230D9F0833029F108952AB381E06F
:1006500090E002C0880F991F6A95E2F78095822387
:100660008ABB089527B381E090E002C0880F991FEC
:100670006A95E2F78095822387BB089524B381E0D1
:1006800090E002C0880F991F6A95E2F78095822357
:1006900084BB089521B381E090E002C0880F991FC8
:1006A0006A95E2F78095822381BB0895843008F033
:1006B00072C0683008F06FC04130A1F5813089F018
:1006C00028F08230C9F0833011F108952BB381E016
:1006D00090E002C0880F991F6A95E2F7822B8BBBCE
:1006E000089528B381E090E002C0880F991F6A95B1
:1006F000E2F7822B88BB089525B381E090E002C029
:10070000880F991F6A95E2F7822B85BB089522B363
:1007100081E090E002C0880F991F6A95E2F7822B72
:1007200082BB0895411137C0813091F028F08230AA
:10073000D9F0833029F108952BB381E090E002C015
:10074000880F991F6A95E2F7809582238BBB0895E5
:1007500028B381E090E002C0880F991F6A95E2F704
:100760008095822388BB089525B381E090E002C084
:10077000880F991F6A95E2F78095822385BB0895BB
:1007800022B381E090E002C0880F991F6A95E2F7DA
:100790008095822382BB0895843070F5683070F5AF
:1007A000813079F028F08230A9F08330E1F028C060
:1007B00089B390E002C0959587956A95E2F78170BC
:1007C000089586B390E002C0959587956A95E2F703
:1007D0008170089583B390E002C0959587956A95DE
:1007E000E2F78170089580B390E002C095958795F7
:1007F0006A95E2F78170089585E5089585E5089585
:1008000085E508951F920F920FB60F9211242F9332
:100810003F934F935F936F937F938F939F93AF9388
:10082000BF93EF93FF93E0917800F09179000995E1
:10083000FF91EF91BF91AF919F918F917F916F91B8
:100840005F914F913F912F910F900FBE0F901F908E
:10085000189585B7886085BF85B7846085BF8AB7DE
:1008600080648ABF40E063E083E00E94E00241E0F0
:1008700063E083E00E94560308958BB780688BBFC6
:100880000895009721F090937B0080937A0008955B
:100890001F920F920FB60F9211242F933F934F93F5
:1008A0005F936F937F938F939F93AF93BF93EF93D8
:1008B000FF93E0917A00F0917B000995FF91EF9111
:1008C000BF91AF919F918F917F916F915F914F9168
:1008D0003F912F910F900FBE0F901F9018958FB7DB
:1008E00080688FBF089599B7916099BF813069F092
:1008F00028F0823089F08330B1F01BC093B79F7B22
:1009000093BF93B7977F93BF14C093B7906493BF7F
:1009100093B7977F93BF0DC093B79F7B93BF93B758
:10092000986093BF06C093B7906493BF93B79860E5
:1009300093BF462F50E04830510550F5FA01E65D6F
:10094000FF4F0C944B0593B7987F93BF21C093B78B
:10095000987F916093BF1CC093B7987F926093BFBC
:1009600017C093B7987F936093BF12C093B7987FD7
:10097000946093BF0DC093B7987F956093BF08C0F4
:1009800093B7987F966093BF03C093B7976093BF68
:100990008150833058F441E063E081E00E94E0023E
:1009A00083B78F7E83BF83B7806283BF089582BF82
:1009B000089583B7887F83BF089590E0FC01319745
:1009C000E730F10528F5EE5CFF4F0C944B0583B73B
:1009D000887F816083BF089583B7887F826083BFEB
:1009E000089583B7887F836083BF089583B7887F26
:1009F000846083BF089583B7887F856083BF08952F
:100A000083B7887F866083BF089583B7876083BF7D
:100A10000895009721F090937D0080937C000895C5
:100A20001F920F920FB60F9211242F933F934F9363
:100A30005F936F937F938F939F93AF93BF93EF9346
:100A4000FF93E0917C00F0917D000995FF91EF917B
:100A5000BF91AF919F918F917F916F915F914F91D6
:100A60003F912F910F900FBE0F901F90189597FBFD
:100A7000072E16F4009407D077FD09D00E94510587
:100A800007FC05D03EF4909581959F4F0895709591
:100A900061957F4F0895EE0FFF1F0590F491E02DB3
:100AA0000994AA1BBB1B51E107C0AA1FBB1FA617B5
:100AB000B70710F0A61BB70B881F991F5A95A9F707
:0E0AC00080959095BC01CD010895F894FFCF6C
:100ACE003738392F3435362A3132332D41303D2BDC
:00000001FF
