:100000000C942A000C9447000C9447000C94470071
:100010000C9447000C9447000C9447000C94470044
:100020000C9447000C9447000C9447000C94470034
:100030000C9447000C9447000C9447000C94470024
:100040000C9447000C9447000C9447000C94470014
:100050000C94470011241FBECFE5D8E0DEBFCDBF12
:1000600010E0A0E6B0E0E2E4F6E002C005900D92F8
:10007000AC36B107D9F720E0ACE6B0E001C01D9284
:10008000AF36B207E1F70E9456000C941F030C94A0
:10009000000080E690E00E94530180916C008F5F29
:1000A00080936C0090E00E946601089589E490E0DE
:1000B0000E94EC020E94CB000E94AC010E94F3025D
:1000C0000E94D502FFCF41E062E080E00E945F0223
:1000D0002FEF86E791E0215080409040E1F700C08B
:1000E000000040E062E080E00E945F028FE99FE054
:1000F0000197F1F700C000000895482F63E080E009
:100100000E945F020895CF93C82F80E00E947D0077
:1001100040E062E080E00E945F024C2F441F4427D1
:10012000441F64E081E00E945F02C6FB442740F95F
:1001300062E081E00E945F02C5FB442740F961E074
:1001400081E00E945F02C4FB442740F960E081E047
:100150000E945F020E946300C3FB442740F964E0F1
:1001600081E00E945F02C2FB442740F962E081E027
:100170000E945F02C1FB442740F961E081E00E94D8
:100180005F024C2F417060E081E00E945F020E949C
:100190006300CF91089541E064E081E00E94E901AD
:1001A00041E062E081E00E94E90141E061E081E03C
:1001B0000E94E90141E060E081E00E94E90141E044
:1001C00062E080E00E94E90141E063E080E00E949B
:1001D000E9012FE783E891E0215080409040E1F76A
:1001E00000C0000083E30E9483008FE39CE9019735
:1001F000F1F700C0000082E30E9483008FE39CE9D6
:100200000197F1F700C0000088E20E9483008CE0B3
:100210000E9483000895CF93C82F81E00E947D0043
:1002200040E062E080E00E945F024C2F441F4427C0
:10023000441F64E081E00E945F02C6FB442740F94E
:1002400062E081E00E945F02C5FB442740F961E063
:1002500081E00E945F02C4FB442740F960E081E036
:100260000E945F020E946300C3FB442740F964E0E0
:1002700081E00E945F02C2FB442740F962E081E016
:100280000E945F02C1FB442740F961E081E00E94C7
:100290005F024C2F417060E081E00E945F020E948B
:1002A0006300CF9108950F931F93CF938C01C0E00B
:1002B00003C00E940B01CF5FF801EC0FF11D80819C
:1002C0008111F7CFCF911F910F9108950F931F9335
:1002D000CF93DF93CDB7DEB72A970FB6F894DEBF82
:1002E0000FBECDBF1A821982FE01339628E0DF01CE
:1002F0001D922A95E9F700E010E010C06AE070E076
:100300000E94F702E1E0F0E0EC0FFD1FE00FF11FAB
:10031000805D8083862F972F0F5F1F4F1816190659
:100320006CF3015011090BC0E1E0F0E0EC0FFD1F90
:10033000E00FF11F80810E940B0101501109112370
:100340009CF72A960FB6F894DEBF0FBECDBFDF91A3
:10035000CF911F910F91089540E067E083E00E94E4
:10036000E90140E066E083E00E94E90140E065E0E9
:1003700083E00E94E90140E063E083E00E94E9013C
:1003800041E065E082E00E94E90141E064E082E052
:100390000E94E90141E063E082E00E94E90141E05E
:1003A00062E082E00E94E90141E067E083E00E94B0
:1003B0005F0241E066E083E00E945F0241E065E0A9
:1003C00083E00E945F0241E063E083E00E945F02FD
:1003D0000895843008F072C0683008F06FC0413072
:1003E000A1F5813089F028F08230C9F0833011F115
:1003F00008952AB381E090E002C0880F991F6A95A2
:10040000E2F7822B8ABB089527B381E090E002C017
:10041000880F991F6A95E2F7822B87BB089524B352
:1004200081E090E002C0880F991F6A95E2F7822B65
:1004300084BB089521B381E090E002C0880F991F2A
:100440006A95E2F7822B81BB0895411137C0813054
:1004500091F028F08230D9F0833029F108952AB341
:1004600081E090E002C0880F991F6A95E2F78095BD
:1004700082238ABB089527B381E090E002C0880FF1
:10048000991F6A95E2F78095822387BB089524B36C
:1004900081E090E002C0880F991F6A95E2F780958D
:1004A000822384BB089521B381E090E002C0880FCD
:1004B000991F6A95E2F78095822381BB0895843065
:1004C00008F072C0683008F06FC04130A1F581308B
:1004D00089F028F08230C9F0833011F108952BB3F0
:1004E00081E090E002C0880F991F6A95E2F7822BA5
:1004F0008BBB089528B381E090E002C0880F991F5C
:100500006A95E2F7822B88BB089525B381E090E0DD
:1005100002C0880F991F6A95E2F7822B85BB089568
:1005200022B381E090E002C0880F991F6A95E2F73C
:10053000822B82BB0895411137C0813091F028F0A1
:100540008230D9F0833029F108952BB381E090E017
:1005500002C0880F991F6A95E2F7809582238BBBB2
:10056000089528B381E090E002C0880F991F6A9532
:10057000E2F78095822388BB089525B381E090E05F
:1005800002C0880F991F6A95E2F78095822385BB88
:10059000089522B381E090E002C0880F991F6A9508
:1005A000E2F78095822382BB089540E062E083E019
:1005B0000E94E90141E062E083E00E945F0285B7AA
:1005C000826085BF85B78E7F85BF85B7806485BF14
:1005D0008AB780648ABF0895009721F090936E00D7
:1005E00080936D0008958FB780688FBF089597FB43
:1005F000072E16F4009407D077FD09D00E940B0354
:1006000007FC05D03EF4909581959F4F0895709515
:1006100061957F4F0895AA1BBB1B51E107C0AA1F1C
:10062000BB1FA617B70710F0A61BB70B881F991F93
:100630005A95A9F780959095BC01CD010895F8943D
:02064000FFCFEA
:0C064200494E54455252555054303A0075
:00000001FF
