S00F0000506F6A656374312E737265637F
S11300000C9439000C9430040C9476040C9456002F
S11300100C9456000C9456000C9456000C94560004
S11300200C9456000C9456000C9456000C942D0518
S11300300C9456000C9456000C9456000C945600E4
S11300400C94E7020C9456000C9456000C94560041
S11300500C945600D104D504DA04DF04E404E90462
S1130060EE04F3040A050E05120516051A051E050D
S1130070220511241FBECFE5D8E0DEBFCDBF10E0BE
S1130080A0E6B0E0E8E0FBE002C005900D92A037E6
S1130090B107D9F720E0A0E7B0E001C01D92AB376B
S11300A0B207E1F70E9462000C9482050C940000F0
S11300B0809170008F5F80937000089581E0809339
S11300C07200089541E064E080E00E940E0340E085
S11300D060E080E00E940E030E9427010E94F90163
S11300E060E081E00E94B60265E080E00E94A10425
S11300F00E949D040E9457040E94E30288E590E058
S11301000E9426058EE590E00E946F040E946B0415
S1130110809172008130F1F40E9436028B3259F4DE
S11301200E94F501809171008F5F8093710090E0CF
S11301300E94AF010FC08A3221F485E00E94FB04C3
S113014009C08F3239F440E064E080E00E94840307
S11301500E94F704809170008D3329F441E064E03B
S113016080E00E948403809170008A3789F610929F
S1130170700040E064E080E00E948403C9CF41E065
S113018062E080E00E9484032FEF86E791E0215033
S113019080409040E1F700C0000040E062E080E071
S11301A00E9484038FE99FE00197F1F700C00000EB
S11301B00895482F63E080E00E9484030895CF935C
S11301C0C82F80E00E94D90040E062E080E00E94F5
S11301D084034C2F441F4427441F64E081E00E94A1
S11301E08403C6FB442740F962E081E00E94840353
S11301F0C5FB442740F961E081E00E948403C4FB0D
S1130200442740F960E081E00E9484030E94BF001B
S1130210C3FB442740F964E081E00E948403C2FBED
S1130220442740F962E081E00E948403C1FB442733
S113023040F961E081E00E9484034C2F417060E04A
S113024081E00E9484030E94BF00CF91089541E0A1
S113025064E081E00E940E0341E062E081E00E94DC
S11302600E0341E061E081E00E940E0341E060E0A2
S113027081E00E940E0341E062E080E00E940E03F0
S113028041E063E080E00E940E032FE783E891E001
S1130290215080409040E1F700C0000083E30E94B9
S11302A0DF008FE39CE90197F1F700C0000082E3CF
S11302B00E94DF008FE39CE90197F1F700C0000082
S11302C088E20E94DF008CE00E94DF000895CF9353
S11302D0C82F81E00E94D90040E062E080E00E94E3
S11302E084034C2F441F4427441F64E081E00E9490
S11302F08403C6FB442740F962E081E00E94840342
S1130300C5FB442740F961E081E00E948403C4FBFB
S1130310442740F960E081E00E9484030E94BF000A
S1130320C3FB442740F964E081E00E948403C2FBDC
S1130330442740F962E081E00E948403C1FB442722
S113034040F961E081E00E9484034C2F417060E039
S113035081E00E9484030E94BF00CF9108950F930F
S11303601F93CF93DF93CDB7DEB72A970FB6F894D8
S1130370DEBF0FBECDBF1A821982FE01339628E07C
S1130380DF011D922A95E9F700E010E010C06AE051
S113039070E00E945405E1E0F0E0EC0FFD1FE00F77
S11303A0F11F805D8083862F972F0F5F1F4F1816D4
S11303B019066CF3015011090BC0E1E0F0E0EC0FF9
S11303C0FD1FE00FF11F80810E9467010150110998
S11303D011239CF72A960FB6F894DEBF0FBECDBF4B
S11303E0DF91CF911F910F91089581E00E94DF006A
S11303F0089540E067E083E00E940E0340E066E079
S113040083E00E940E0340E065E083E00E940E0357
S113041040E063E083E00E940E0341E065E082E097
S11304200E940E0341E064E082E00E940E0341E07A
S113043063E082E00E940E0341E062E082E00E94F9
S11304400E0341E067E083E00E94840341E066E03C
S113045083E00E94840341E065E083E00E9484031A
S113046041E063E083E00E9484030895CF92DF9229
S1130470EF92FF920F931F93CF93DF93CDB7DEB725
S113048068970FB6F894DEBF0FBECDBF95E0998391
S113049084E08A8383E08B8322E02C8327E02D830E
S11304A026E02E839F83888780E1E0E6F0E0DE018A
S11304B0199601900D928A95E1F7E12CF12CCC2448
S11304C0CA943FC0E1E0F0E0EC0FFD1FEE0DFF1D0C
S11304D0D08040E06D2D82E00E94840300E010E0B3
S11304E025C0E5E0F0E0EC0FFD1FE00FF11F608197
S11304F083E00E94FA03811117C02FEF89EF90E087
S1130500215080409040E1F700C00000F701EE0F59
S1130510FF1FEE0FFF1F81E090E08C0F9D1FE80F7F
S1130520F91FE00FF11FC0840F5F1F4F0430110546
S1130530C4F241E06D2D82E00E9484039FEFE91A2A
S1130540F90A24E0E216F1040CF4BCCF8C2D689671
S11305500FB6F894DEBF0FBECDBFDF91CF911F91D0
S11305600F91FF90EF90DF90CF900895813059F074
S113057018F0833079F014C087B18F7B87B987B1C5
S11305808F7787B90DC087B1806487B987B18F77BA
S113059087B906C087B1806487B987B1806887B995
S11305A086B1806886B986B18F7D86B986B180614F
S11305B086B986B1846086B986B1826086B986B10F
S11305C0816086B9089586B1886086B908951F92BE
S11305D00F920FB60F9211242F933F934F935F9373
S11305E06F937F938F939F93AF93BF93EF93FF93F7
S11305F0E0917300F09174000995FF91EF91BF9120
S1130600AF919F918F917F916F915F914F913F91A6
S11306102F910F900FBE0F901F901895843008F003
S113062072C0683008F06FC04130A1F5813089F0A4
S113063028F08230C9F0833011F108952AB381E0A3
S113064090E002C0880F991F6A95E2F7822B8ABB5B
S1130650089527B381E090E002C0880F991F6A953E
S1130660E2F7822B87BB089524B381E090E002C0B7
S1130670880F991F6A95E2F7822B84BB089521B3F2
S113068081E090E002C0880F991F6A95E2F7822BFF
S113069081BB0895411137C0813091F028F0823038
S11306A0D9F0833029F108952AB381E090E002C0A3
S11306B0880F991F6A95E2F7809582238ABB089573
S11306C027B381E090E002C0880F991F6A95E2F792
S11306D08095822387BB089524B381E090E002C013
S11306E0880F991F6A95E2F78095822384BB089549
S11306F021B381E090E002C0880F991F6A95E2F768
S11307008095822381BB0895843008F072C06830DC
S113071008F06FC04130A1F5813089F028F08230B3
S1130720C9F0833011F108952BB381E090E002C049
S1130730880F991F6A95E2F7822B8BBB089528B323
S113074081E090E002C0880F991F6A95E2F7822B3E
S113075088BB089525B381E090E002C0880F991FFB
S11307606A95E2F7822B85BB089522B381E090E07D
S113077002C0880F991F6A95E2F7822B82BB089505
S1130780411137C0813091F028F08230D9F08330A4
S113079029F108952BB381E090E002C0880F991FDE
S11307A06A95E2F7809582238BBB089528B381E094
S11307B090E002C0880F991F6A95E2F78095822322
S11307C088BB089525B381E090E002C0880F991F8B
S11307D06A95E2F78095822385BB089522B381E070
S11307E090E002C0880F991F6A95E2F780958223F2
S11307F082BB0895843070F5683070F5813079F0EB
S113080028F08230A9F08330E1F028C089B390E069
S113081002C0959587956A95E2F78170089586B32D
S113082090E002C0959587956A95E2F781700895E6
S113083083B390E002C0959587956A95E2F781703D
S1130840089580B390E002C0959587956A95E2F784
S11308508170089585E5089585E5089585E50895F1
S11308601F920F920FB60F9211242F933F934F9321
S11308705F936F937F938F939F93AF93BF93EF9304
S1130880FF93E0917500F09176000995FF91EF9147
S1130890BF91AF919F918F917F916F915F914F9194
S11308A03F912F910F900FBE0F901F90189585B711
S11308B0886085BF85B7846085BF8AB780648ABF36
S11308C040E063E083E00E940E0341E063E083E0E4
S11308D00E94840308958BB780688BBF08950097A6
S11308E021F0909378008093770008951F920F92DF
S11308F00FB60F9211242F933F934F935F936F93EF
S11309007F938F939F93AF93BF93EF93FF93E09164
S11309107700F09178000995FF91EF91BF91AF9125
S11309209F918F917F916F915F914F913F912F9103
S11309300F900FBE0F901F9018958FB780688FBFD0
S1130940089599B7916099BF813069F028F0823099
S113095089F08330B1F01BC083B78F7B83BF83B72B
S1130960877F83BF14C083B7806483BF83B7877FC7
S113097083BF0DC083B78F7B83BF83B7886083BF7A
S113098006C083B7806483BF83B7886083BF862F24
S113099090E08830910550F5FC01E65DFF4F0C9422
S11309A0680583B7887F83BF089583B7887F816094
S11309B083BF089583B7887F826083BF089583B718
S11309C0887F836083BF089583B7887F846083BFF3
S11309D0089583B7887F856083BF089583B7887F30
S11309E0866083BF089583B7876083BF089583B704
S11309F0887F83BF0895E82F89B7816089BF8E2FD0
S1130A0090E0FC013197E730F105F8F4EE5CFF4F1C
S1130A100C94680583B7887F816083BF83B7887F20
S1130A20826083BF83B7887F836083BF83B7887FF7
S1130A30846083BF83B7887F856083BF83B7887FE3
S1130A40866083BF83B7876083BF0895009721F0D2
S1130A5090937A008093790008951F920F920FB6B5
S1130A600F9211242F933F934F935F936F937F9330
S1130A708F939F93AF93BF93EF93FF93E09179008C
S1130A80F0917A000995FF91EF91BF91AF919F91F9
S1130A908F917F916F915F914F913F912F910F9023
S1130AA00FBE0F901F90189597FB072E16F4009415
S1130AB007D077FD09D00E946E0507FC05D03EF4EF
S1130AC0909581959F4F0895709561957F4F0895F6
S1130AD0EE0FFF1F0590F491E02D0994AA1BBB1B98
S1130AE051E107C0AA1FBB1FA617B70710F0A61B2A
S1130AF0B70B881F991F5A95A9F780959095BC014B
S10B0B00CD010895F894FFCF24
S1130B083738392F3435362A3132332D41303D2B9D
S9030000FC
